S00E00006C65647573622E7372656397
S1130000D80A0020050100000101000001010000E0
S113001000000000000000000000000000000000DC
S113002000000000000000000000000001010000CA
S113003000000000000000000101000001010000B8
S113004001010000010100000101000001010000A4
S11300500101000001010000010100001D1D00005C
S11300600101000001010000010100000101000084
S11300700101000001010000010100000101000074
S113008001010000010100000101000010B5064C4F
S11300902378002B07D1054B002B02D0044800E045
S11300A000BF0123237010BDCC000020000000001D
S11300B0A0350000084B10B5002B03D007490848B1
S11300C000E000BF07480368002B00D110BD064BB9
S11300D0002BFBD09847F9E700000000D000002077
S11300E0A0350000A03500000000000010B5024B50
S11300F09847024B984710BD650300007129000022
S1130100FEE700002148224970B5884204D000234C
S1130110204CCA18A24232D300211F4B1F4A9342DB
S113012031D3FF211E4B1F4A8B43936002220C25BF
S1130130082430261C4B1D485A62C378FC398B4373
S11301401343C370C378AB432343C370184B987BEA
S1130150B0430600202030439873987BA84304439F
S11301609C73987B884302439A738023114A516895
S11301700B435360104B9847104B9847FEE7C55804
S113018004331560C5E702C3C9E7C046A0350000C3
S113019000000020CC000020CC000020D806002065
S11301A00000000000ED00E0FC7000410050004140
S11301B00048004100400041592B00000128000084
S11301C070B51F244209C0B20440FF234D1C09D15D
S11301D01A40D201144BA218D218137802318B435F
S11301E0137070BD01251340104ADB019B181E19C2
S11301F040363278AA432A4332706208284209D032
S11302000F209A1830321378090103401943C9B2F8
S11302101170E6E70F209B1830331A7801408243AF
S113022011431970DDE7C0464044004100440041D9
S11302300422034BC0180378934303707047C046ED
S11302404044004170B50E20054DA8470549064CB1
S11302500E20A0470F20A84704490F20A04770BDD7
S11302603102000002000E00C101000002000F0074
S11302700423054A116A0B431362044B044A5A804F
S1130280044A5A807047C04600040040000C0040F5
S11302900E4000000D43000010B5044B984704497C
S11302A0044B05489847054B984710BD7102000060
S11302B00008004215040000B406002045020000B6
S11302C0F8B5C024802380270E4D0F4AE4055B0453
S11302D0FF05A3600D4EAF621820AA626361B047A8
S11302E00B4918200B4B984780230B4A9B04A360AF
S11302F01920AF62AA626361B04708491920054B0F
S11303009847F8BD00440041000100C031020000DC
S113031006001800C1010000000200C00600190018
S11303202022064BD9690A43DA61402259690A43FB
S11303305A61034A034B5A807047C0460004004088
S113034006410000000C004010B5034B9847034BD6
S11303509847034B984710BD21030000D5060000C1
S1130360C102000010B5034B9847034B9847034B59
S1130370984710BD810A000099020000490300005B
S1130380EFF31083036072B6BFF35F8F7047BFF360
S11303905F8F036883F3108870470000044B10B527
S11303A01C68044B9847044B01002000984710BD7B
S11303B0E80000205D0A0000790A00001FB514005F
S11303C01438828B01AB1A80054A03915A801900B4
S11303D0044B02949847002800D1200004B010BDBB
S11303E00080FFFF790E00001FB514001438828BC3
S11303F001AB1A80054A03915A801900044B0294F8
S11304009847002800D1200004B010BD0180FFFFF0
S1130410790E000070B50400431E98410D00C0B26F
S11304200749084B5E22984729002000064B98474D
S1130430002803D1054BA361054B636170BDC04621
S113044004340000E50900001D0E0000E90300006B
S1130450BD03000010B5014B984710BD4D0E0000C0
S113046080238905DB00890D1A400A43828310002A
S113047070470000F0B587B000936B46D971170040
S1130480828B03AC228001220492002207332100D4
S1130490084E050062800593B047002807D1064B3B
S11304A021006380009B2800A7606360B04707B009
S11304B0F0BDC046790E00000180FFFF14300860D3
S11304C00020704770B504000D001600002803D00A
S11304D00800431E9841C0B234220449044B984793
S11304E03200290023682000984770BD20340000A2
S11304F0E50900000F22002370B50A4C02405E019A
S1130500A5196D7859B2854209D0365D002E01D106
S1130510AA4204D001330D2BF1D101214942080034
S113052070BDC046EC0000200020704770B5084B39
S113053004000D009847074B40011B189A780020CF
S1130540032A03D19B6929002000984770BDC04647
S1130550F5040000EC000020F0B5394B87B00090A2
S11305600F0001929847374D4401002F42D12E19B4
S1130570F770295D002934D12200B7780C327078E5
S1130580F369032F28D10C27AA180131F75798478C
S1130590737800280DD00522B270033AF270180067
S11305A0002F01DB802018430121274B984707B017
S11305B0F0BD0422B27003AA03905060002F08DB40
S11305C08020034313720123100053721F4B98477A
S11305D0EDE70F200340F5E7AA1898470223B3700C
S11305E0E5E70123B3702C19E178E369019A0098D7
S11305F09847DCE72B19012F0CD10222DA70295D10
S1130600002904D19A7000980F4B9847EBE7052214
S11306109A70E8E7022F08D10422DA702A5D002AD2
S113062001D19F70C3E70122F2E7032F04D1002216
S11306309A700532DA70D6E706229A70FAE7C04655
S1130640F5040000EC0000208D1A0000B51B00002A
S1130650F0B51C4B85B0040098471B4F430103932E
S11306600C33FB18019319002000184B984780267F
S1130670C0B2174D7642082808D001212000A847AF
S113068001213443E0B2A84705B0F0BD0021264360
S11306902000A847F3B2002118000293A847039B47
S11306A00199FE1801272000B77073699847002844
S11306B0EAD105233900B3702000A8473900029815
S11306C0E1E7C046F5040000EC0000205D1B0000DB
S11306D08D1A000010B5124B984700281FDBD0225A
S11306E0104C52002000104B00219847FF20631C3F
S11306F00E4AA234FF3419001870133120330A60F3
S11307004A608A60A342F6D1094C0A490020A047F6
S113071009490120A04702200849A047002010BD34
S1130720E1160000EC000020B32B000029050000B6
S1130730F11C0000510600002D05000059050000C1
S113074010B5014B984710BDCD1C000010B5014BEE
S1130750984710BDA517000010B5014B984710BD70
S1130760ED17000010B5014B984710BDFD170000B0
S1130770F8B5104C06000D001700A047002813DA46
S1130780FF20A047041E12DB3A00290030000A4B68
S11307909847002807DB094B64011A195670032295
S11307A000201540E554F8BD14204042FBE7152015
S11307B0FBE7C046F50400000D180000EC00002023
S11307C0002110B582B2024B0800984710BDC04604
S11307D07107000070B5074B05009847041E07DB3E
S11307E0054B28009847054B64011C19FF236370CF
S11307F070BDC046F5040000D5180000EC000020D0
S113080070B50C4B0500984700280FDB0A4C4001DB
S1130810035D24185A4253410133A3702800074B47
S11308209847002801DA0023A37070BD12204042CB
S1130830FBE7C046F5040000EC000020511900005D
S1130840F0B5037A8BB0050001931800354B984737
S11308506B7A061E03936C6862DB334B06A89847D9
S113086073010093009A314B9E18B37804AAD71DE4
S11308703B703B78DBB20293029A2D4B012A1DD1C7
S11308800232B27006A89847284B009AD35C002B1A
S113089025D0019BDA09039B591E8B41DBB2297ACF
S11308A02D6807A807954460002A36D080220A43A1
S11308B04372204B027298470BB0F0BD06A89847CC
S11308C03B780220DBB2052BF6D0062B04D00120A6
S11308D0002BF1D1132000E010204042ECE7F27C21
S11308E0B37C12029B189BB2002B05D104221C007E
S11308F0029BB2701A00D2E79C4200D91C000B493B
S1130900009A8C466244127B7F2A04D99C429B4104
S113091001225B42C3E70023ECE70F220A40C7E74A
S11309201220DAE7F504000081030000EC00002047
S11309308F030000B51B0000F8B504000D1E1BD189
S1130940124B9847061E1EDB02212000104FB847A9
S1130950002810D029002000B84700280BDB0D4BDD
S113096076019E1903210123F170B3702A00F36903
S1130970200098472800F8BD054B012900D002212A
S113098020009847F7E712204042F4E7F5040000FE
S11309908D1A0000EC00002070B50F4B15000C0000
S11309A09847002D00D10D4D002805DB012C09D0FE
S11309B0002C02D0022C0AD070BD094B400118183B
S11309C04561F9E7064B400118188561F4E7044BCB
S11309D040011818C561EFE7F5040000290500007F
S11309E0EC000020002800D100BE704700680028F9
S11309F000D170478842F9D10120FAE770B50C4B59
S1130A0005000C0006689847030001205840C0B256
S1130A10084B4F22084998472B68002B03D12C60C0
S1130A20236070BD1E003368002BFBD13460F7E7F0
S1130A30ED090000E509000034340000054B020014
S1130A401968002901D104491960186882181A60CC
S1130A507047C0468C020020D80A00200300C8203A
S1130A608000584310B5034B0230032198470A23F2
S1130A70584310BD412A00000139FDD870470000D9
S1130A8010B5064B5A685A60054B9847054B984772
S1130A90054B98473F20054B984710BD0040004147
S1130AA0ED0A00001D1000005D100000B10A0000F6
S1130AB0C3070BD4830708D502220A4BFF329A607E
S1130AC0094A5A605A78D209FCD170478022054BF2
S1130AD052009A60832252025A605A78D209FCD199
S1130AE0E8E7C046000C004001072100064B1A7AD3
S1130AF0D2B21A725A7AD2B25A729A7AD2B29A721A
S1130B00DA7AD2B2DA72704700040040C36919423B
S1130B10FCD17047022210B503680321934303609C
S1130B20014B984710BDC0460D0B0000074B10B594
S1130B30C3189B0ADBB2181E07D0E62200209200DD
S1130B400349044B98470120404210BD00F8FFBD03
S1130B507D340000E5090000F8B50400431E984107
S1130B60144AC0B21449154B984702232268032142
S1130B70134323602000124DA8470427114E04217B
S1130B802000A8470322638B1B091340012B01D1CA
S1130B900020F8BD013E002EF1D1013F002F05D009
S1130BA01023042163832000A847E7E7062040427E
S1130BB0EFE7C046F40500007D340000E5090000BD
S1130BC00D0B0000FFFF0000C02310B542689B021C
S1130BD0134343600421014B984710BD0D0B0000E3
S1130BE0F7B50500036800915B4F042114000193DD
S1130BF0B84701216B8B009E9BB20E400222002E4F
S1130C0000D166E013420FD080220B405E425E4169
S1130C102976608852010243628062884F48053E0B
S1130C20024062803000FEBD04261E4015D0636879
S1130C30002B04DD802362885B0113436380638897
S1130C401BB2002B02DA2800454B98476388434ABD
S1130C501340638002267642E4E780236288DB0047
S1130C601A40009218D0062223880421DB0913407D
S1130C7028000093B84780226B6AD2011A40F123FE
S1130C801343009A042113436B622800B847638816
S1130C90344A13406380C5E76668002E09D163882F
S1130CA01BB2002B02DA28002D4B984763882B4A8D
S1130CB0EFE7A36804211A782B0028331A70280060
S1130CC0B847A3680133A3606368013B63600026EF
S1130CD0A8E700981042A5D06268002A38D05B07C4
S1130CE036D4019B013ADE0E0E406260002A0AD11E
S1130CF0002E0CD180236A68DB0213436B6004214D
S1130D002800B84703E0012A01D1002EF2D163681C
S1130D10002B10D16388114E1BB2002B08DA6B68CC
S1130D20280033406B600421B84728000C4B9847D7
S1130D30638833406380A6680421731CA360280081
S1130D40B8472B0028331B78337002232B76BEE779
S1130D5002232B767EE7C0460D0B0000FFFEFFFF4B
S1130D60C90B0000FFFBFFFFF7B50C000090264BFA
S1130D7008009847E369C7B2244EDB071BD4182345
S1130D807B43234A0225D3185A681C2303211A40A3
S1130D9020000192B04723682B4205D020001D4B50
S1130DA0984729002000B0470123019A03211343E7
S1130DB023602000B04718257D4320000121B0475F
S1130DC0134B20005D196F6803212760B047AB689F
S1130DD0200063600421B047EB68BF01E360009B1F
S1130DE0B90F9981676A0C4A20003A4001278F4263
S1130DF0BF417F42BF03174367620421B0476B8A38
S1130E00009A0020D381FEBD2D0B00000D0B0000C5
S1130E1054340000150B0000FFBFFFFF70B5040041
S1130E20431E98410D00054AC0B20549054B984739
S1130E30256129002000044B984770BD0705000078
S1130E407D340000E5090000690D000010B50400C0
S1130E50431E9841044A0549C0B2054B984720698E
S1130E60044B984710BDC046240500007D340000A3
S1130E70E5090000590B0000F7B504005C4F5D4B19
S1130E80009106695C4A3900012098472069B8221C
S1130E90431E9841D200574BC0B23900984700987E
S1130EA0564A431E98413900524BC0B2984780239A
S1130EB062885B009C461A4200D087E0009A009941
S1130EC052881A434A80220029C929C2634672689B
S1130ED00421134373603000494B98472569494AFC
S1130EE02B68390001930120424B98476268012A1C
S1130EF040D1019BDB0E13423CD080236A68DB02A5
S1130F0013436B6004213E4B2800984780232288BA
S1130F10DB0057001A4231D06288D20702D56288BA
S1130F2013436380364B042128009847364A6B6A82
S1130F3017408022D2011A4080231B0213431F430F
S1130F4028002F4B6F6204219847802303222069D5
S1130F505B02017E013BC9B2002B21D12800220093
S1130F602A4DA847032700281DD06388284A134028
S1130F706380FEBD6B68274A1340C2E7638804217F
S1130F809BB2019328001E4B9847FF2201991740FA
S1130F90FE3A0A40174380226B6AD2011340CEE71F
S1130FA01142D6D0DAE78022638852001342E0D09F
S1130FB0802322695B02117E013BC9B2002B07D05A
S1130FC03942F8D022003000A847ECE706200CE0B4
S1130FD0009B5B881BB2002B02DA30000E4B984753
S1130FE0052063880A4A134063804042C1E7C04633
S1130FF07D340000E5090000BF050000C1050000C4
S11310000D0B000094050000FE070000E10B00003A
S1131010FFFEFFFFFFFFFBFFC90B00000D4B0E4857
S1131020196A1A6A01400220920F920702430A4386
S11310301F211A629A69104398611A7F0A401A772D
S11310400822D9681142FCD08022196A0A431A6224
S11310507047C046000800400000FF0F0222184BF2
S11310609A840E32D9681142FCD0164ADA62164AC2
S11310701268920E3F2A0FD08021920289000A43FF
S11310809A62932252009A849A8C520707D41022AF
S1131090D9681142FCD006E0FC22D201F0E710220C
S11310A0D9681142FCD08022998C0A4307499A845A
S11310B04A78D209FCD102219A698A439A6170471D
S11310C00008004080BB010424608000000C004044
S11310D000207047074B9A8C920605D4D021DA6819
S11310E00A40D02AFBD170471022D9681142FCD0A3
S11310F0F9E7C04600080040002803D0002901D0C9
S11311000230C0B21423013043430148C018704771
S1131110900200200F2370B50100807C0725034056
S11311201A00CC7C083225405B01012D08D01449FB
S1131130520152181021D171124A9B18597270BD74
S113114040252C4206D08026AC43CC740D4C1C198F
S11311506671A5710825CC7C5201AC43CC74002483
S113116009493031C9188C728C76054952186F219F
S1131170D171044A9B185972044B9B689847DEE767
S113118000500041FF5000419004002090020020D4
S113119020220F238A4010B50400807C05490340B7
S11311A05B015B18D2B25A72034BA2681B6901211E
S11311B0984710BDFF5000419002002010B5030075
S11311C0807CFF2809D04024DA7C224205D0A24347
S11311D0DA74024A14699A68A04710BD900200208C
S11311E0F7B5252401AD837C2C70241994466C70CA
S11311F0FF2B1AD04027C47C3C4216D00F24234036
S11312001C0008346601002910D00A4FF619802703
S11312103771084A6401A418074A695C5B019B188A
S1131220E17159726146054B9847F7BD014AB618FA
S11312307771EEE700500041FF500041BD110000FE
S1131240F7B50F22847C01AF14400B3A3A70043294
S11312507A70220008320B002D4D61015601002BDB
S113126024D0AD5D6D066D0F2A4E3036B4461E0196
S11312707618B4446646B67AF6B2022D1AD1013D08
S11312802E4217D06446A47A5201AC436546AC7230
S11312901F4DFC5C5219D4711F4A89184C72591E97
S11312A08B410422D9B21D4B9847F7BDAE5D07258B
S11312B03540D9E702252E4019D06646B67AC47C5B
S11312C0AE436546AE72124EFD5C52019219D57161
S11312D0114A891807224D722240012AE5D162067B
S11312E0E3D5C17CC9098B42DFD00022DBE7600073
S11312F0084AC0183032000112189672084A640174
S1131300A418054AFB5C8918E3714B72CDE7C0460B
S11313100050004190040020FF500041E111000002
S11313200051004170B50B4D8C232C00FF269B000F
S11313301434ED1803212000074B98470021A674AC
S1131340E1741434AC42F5D104486022044B3030CB
S1131350984770BD90020020BD1100009004002049
S1131360B32B0000F0B50F2585B00091837C0400F9
S11313701D4001936B0102930023994206D04D4B0B
S11313806A0130339B185B699B049B0C268A4A4A8A
S11313900396964202D0721E92B20392E27C944665
S11313A0072261461140009A0291002A04D0434961
S11313B06A0152180221D171A26867689918A16064
S11313C06A01B94240D260467F1ABBB2394F8006E7
S11313D02ED5321C9E4200D91A1C236896B2591885
S11313E03200374BE0689847324BE26869015B187A
S11313F01A646B01FF187B6CB604B20C9E0BB60327
S113140016437E647B6C2F4A13407B64009B002B45
S113141008D1029B4E22012B00D0043A2A496B01C9
S11314205B189A72254B6D01ED1880236B713AE0BD
S113143080201E1C8001834200D9061C2368BA1830
S11314405918B6B21164D4E71027604638420ED05A
S1131450E37C6A01BB43E374164B1A499B185A6C2C
S1131460920B92035A645A6C0A405A64CEE702986B
S113147001281AD14B25144812185572039A1340A7
S11314809E420CD14025E37C0198AB43E3740F4B9F
S1131490DB689847002806D1E37C2B43E3740021E2
S11314A020000B4B984705B0F0BD07484A25121899
S11314B0E3E7C04690040020FF0300000051004110
S11314C0A12B0000FF3F00F0FF50004190020020DC
S11314D0BD1100000F23F0B5827C87B01A40530180
S11314E004000D1E0192059368D0059A674B9B1862
S11314F0586B0001820C03925F6BBF04BF0C238AFC
S11315000293029A624B9A4203D01300013B9BB2AE
S113151002930723E27C029E13403E400493002D75
S113152005D0019B5B495B015B180121D9719306CE
S11315300DD56268002A0AD0A0682368121A92B2F4
S11315401818E168964200D23200534B9847019A2A
S113155063685101002B34D11020E27C024200D197
S11315608BE0824320331A43E274484B059AE168C6
S11315709B181963218A1A0048485B6B890409097E
S113158003400B435363536B9B0B9B035363002D2B
S11315900DD1019B04995A012523012904D13B4B08
S11315A030339B189D762D233D4952189372019B2D
S11315B0384A5B019B1840221A711FE003910F0007
S11315C09DE7002D1CD0228AB24219D91022E37C57
S11315D09343E374A368DF19A760049B012B48D1EC
S11315E02F4BC9182D234B72019B002B02D1274B83
S11315F0E2681A63002120002A4B984707B0F0BD27
S1131600A668039AB44662441000A2609342E4D9E7
S113161020269B1AE27C9BB2278A324212D0381CC5
S11316209F4200D9181C019A83B25001174AE468FA
S113163010180463154A19485218516B9B041B096E
S113164001409EE7BB420DD98026B601B3420ED8B5
S1131650029A93432468019A201854010B4A1419DE
S11316602063E7E7BB42F5D21643E674F2E73300A2
S1131670F0E70B4BC9182523B5E7002DA3D1A268C9
S1131680039B94466344A360A7E7C04690040020EC
S1131690FF03000000510041A12B0000FF3F00F0B8
S11316A0FF500041BD110000802302009B00072071
S11316B09A4214D8013BFF3B01389A420FD80138B3
S11316C0802A0CD80138402A09D80138202A06D8A3
S11316D00138102A03D806309042804140427047B6
S11316E010B52A4CA378DB070DD40323A2781A4241
S11316F0FCD10222237813423CD10123237002330C
S1131700A2781A42FCD10123A2781A42FCD1204BC0
S1131710204A1A605A609A60DA601A611E4B984730
S11317201F201E4B1A68530B910C92010340014079
S1131730520F834200D105231F2900D10239072A01
S113174000D1023A9B010B43120313432385032365
S1131750E2781A43E2700C22E1780A43E270042230
S11317602270A0781840FCD10D4B30336362012302
S1131770238110BD2378934323700323A2781A4254
S1131780FCD10223A2781A42FCD1B6E700500041F2
S113179090020020D1100000251300002460800076
S11317A09004002003220E4B9978114215D19978A8
S11317B01142FCD102221978C9B2114206D080210B
S11317C00020084A1160084A1A8370470A431A70B5
S11317D0032299781142FCD1F1E711204042F4E749
S11317E00050004100E100E08D0200000121024AA6
S11317F013898B43138170470050004180231843A1
S1131800014B98727047C04600500041F7B500265E
S11318106B460F24009001929E5704400F002B4BFF
S1131820F10F20009847032305001F40022C44D8E1
S1131830837CFF2B44D1002F0FD1F143234BC90FDD
S113184020009847837CFF2B3AD1F33B6343204A23
S11318509B58002B36D1132030E0002E16DA0C22D0
S113186062431B4B9B185A68002A1BD10C23634309
S1131870174CE4186368EB606B469B8800202B824E
S11318806B461B780137EF74AB74FEBD0C236343C6
S11318900F4A9B58002B0BD00C2262430C4B9B1815
S11318A01B8900E05B89019A9342D4DB002EDDDBC7
S11318B00C235C43064BE358DDE712204042E4E787
S11318C01420FBE7002EE7DAC9E7C046F910000050
S11318D098340000F7B50F2543B2DF0F054001939C
S11318E0040039002800164B98470600022D14D82E
S11318F0837CFF2B11D00322124B39009847072217
S1131900F37C1340012B09D1002208340E4B6401EF
S1131910E2540023F374FF33B374F7BD63B2002BB6
S113192007DA7022094B6D01ED186B7893436B70E5
S1131930EFE7064B6401E418637893436370E8E7C8
S1131940F9100000E111000000500041FF50004177
S1131950F7B50F2544B20540E10F464B28009847E0
S1131960454B6901CE1872780700D2B2022D00D916
S11319707BE0837C0193FF2B00D176E03F4DC37C59
S113198030356D1807201900014001293BD1772417
S1131990144000D06CE0112373703B8A009318004C
S11319A0374B9847E0230007DB051840009B354A76
S11319B09B03134003436B60009B40219B049B0CDF
S11319C08022184368610F20B1717271019AAC7260
S11319D002402A485201AC7685182800FE682E631E
S11319E06D6B9E03284B2B4033434363436B9B0B2C
S11319F09B034363204BD318B0225A71A03A9971C8
S1131A009A722000FEBD002C17DA702014000440E6
S1131A102ED11B010340134373703F8A184B3800C7
S1131A209847E0230007DB0518408023BF04BF0C60
S1131A30384368617371AC76E3E71040041E17D134
S1131A405B075B0F134373703F8A0D4B3800984755
S1131A500C4ABB031340E0220007D2051040184390
S1131A6040236860B371AC72CBE712204042C9E7EF
S1131A701420FBE7F9100000FF50004190040020FF
S1131A80A916000000C0FF0FFF3F00F0F8B50700E3
S1131A900F25C4092F400E00380021002B4B984716
S1131AA0022F4FD8012E15D11022A240837C284941
S1131AB01D406B01D2B25B185A712023A340254A02
S1131AC06D01DBB2AD18AB720823C27C1343C3743F
S1131AD00020F8BD837C002E29D12B401E4A5B01D7
S1131AE099181C4A9B181022A240DD792A42EFD093
S1131AF0D2B25A712022A240D5B25D721E7A32420D
S1131B0004D00122A240D2B21D725A710723C27CB2
S1131B101340012B08D1FF31CB7930210B40D7D1B1
S1131B2028398A43C274D3E708239A43FAE71D404D
S1131B30074B6D01ED181023A340A8791840431EEC
S1131B409841C6E712204042C3E7C046F91000009E
S1131B5000510041FF50004100500041F8B50F23EF
S1131B601840114B440130331B190F0019685D688C
S1131B70AD04AD0C022812D8002F10D00B4BE41882
S1131B806378112B0ED11026237A0020334205D01E
S1131B9008223800064B984728002672F8BD122008
S1131BA04042FBE71320FBE790040020FF50004174
S1131BB0A12B0000F0B50F25037A87B01D405BB25E
S1131BC00193DB0F039319000700384B2800984753
S1131BD0374A038A04001E00934201D05E1EB6B247
S1131BE07A6816400296022D5DD83D6831498D42CF
S1131BF00BD931485119814207D803210D4004D132
S1131C00019900290EDB9A4206D2E3680125002BD4
S1131C1008D11320404215E0029B002B14D0E36846
S1131C20002B40D0E37C02201B070BD4234B05A8D8
S1131C309847E17C40230E00214A1E4006D005A8A7
S1131C409047012007B0F0BD029DEBE70B43E3741E
S1131C5005A890477F213B6823607B68A66063608A
S1131C60039BDA01E37C0B40134369011D0020232D
S1131C709D430D43E5747B7A002B03D0029E73428F
S1131C805E41F6B21022E37C360193431E43019B6E
S1131C90E67400212000002B03DA0A4B9847002049
S1131CA0D0E7094BFAE71220B4E7C046F910000068
S1131CB0FF030000FFFFFF1FFF0F00208103000050
S1131CC08F03000065130000D5140000002900D123
S1131CD00549012802D1054B596070470028FCD101
S1131CE0024B1960F9E7C046D110000090020020B1
S1131CF0002900D10749002802D1074B9960704799
S1131D00012802D1044BD960F9E70228F7D1024B2C
S1131D101961F4E7D110000090020020F7B5654B7B
S1131D20654D1A8C92B20192002A56D19A8B1F8B60
S1131D30042017403A00024003D098832B68984748
S1131D40F7BD8021890039401FD05C49998399826D
S1131D509239FF3919835A4B198F0907090F03293F
S1131D6008D019005831088811000007000F032813
S1131D7007D1012252019A180023118F13874904B5
S1131D80490D03206B689847DAE780223E0016402D
S1131D9003D09A836B680520F5E770223C00144059
S1131DA009D09A839A82454A1A83464B98476B68AE
S1131DB031000220E7E70826390031400BD04249C0
S1131DC04C709E839A823D4A1A83404B98476B68B5
S1131DD021000120D7E7FC0726D42C000027012688
S1131DE01434A27CFF2A3ED00F231A4033009340C0
S1131DF00199194237D0364953015B1832495201CF
S1131E0052181B78927A13402DD0142247217A431A
S1131E10AA181032D27D1140012915D1DA0609D54C
S1131E2020002C4B98471EE0244C9C839C821A83F0
S1131E306B68A8E74021194001D0310001E09B06FE
S1131E4011D52000244B0DE051B200291ADA5906AD
S1131E50F3D4190701D531001BE0990708D53100E7
S1131E6020001E4B9847013714341B2FB9D167E764
S1131E7007210A40012AF6D100215A0709D4DB06BA
S1131E80F1D5CDE72021194001D00021D9E7580729
S1131E9002D52000124BE5E7334203D03100200085
S1131EA0104BDFE707210A40012ADCD11A07E6D5E7
S1131EB0D1E7C0460050004190020020010200001A
S1131EC090040020D5100000FF50004125130000AD
S1131ED00751004115110000911100006513000025
S1131EE041120000D5140000F0B516000A7885B040
S1131EF0530601900C009B0F012B56D1637909798D
S1131F002C4D1B020B432978994202D069789942DF
S1131F104BD152B2002A12DA0020012E0DD0637880
S1131F20212B18D1E279A37912021A43072A3FD14F
S1131F300300A91D0198204CA04705B0F0BDE3792A
S1131F40A7791B021F431D4B984763780100202B80
S1131F5003D0222B1AD00D2028E0072F28D1002EE1
S1131F6002D133003A00E5E73A0002A8144CA04736
S1131F702B69002B05D1A81D072202A9A047002028
S1131F80DBE702A898470028F5D1F8E700230A4EBA
S1131F901A0019001800B0476B69002BEFD0E078E5
S1131FA0A278000210439847E9E70A204042C4E7B8
S1131FB00120FBE7E00500201D2300003D27000071
S1131FC0A12B0000F7B51500012950D0002904D039
S1131FD01B2002290AD00D2008E0836810680093B2
S1131FE01E0002330193002802D10A20404220E05F
S1131FF00821437982788B43022BF6D133789A42B5
S11320005FD0FF2B5FD1327069680522304B98474F
S1132010041E0FD12868042203786968C0182C4B69
S11320209847019B0136B342DDD101222000294BA0
S11320305A71FEBD637922791B02A778D21892B235
S1132040E1783800244B984700283ED17BB2234ADC
S1132050002B09DAB770380090472C602078696843
S113206020181F4B9847D3E7009B1F71F3E7846840
S1132070002A05D0136808225B799343022BB4D15C
S11320802378FF2B07D0FF25A0782570A84202D023
S1132090144B9847A5706378FF2B07D0FF25E07891
S11320A06570A84202D00F4B9847E5702079FF284D
S11320B003D00C4B9847FF2323710020054B587124
S11320C0B7E7122092E71C2090E714208EE7C04661
S11320D05D270000E00500207107000001080000F2
S11320E077270000D507000010B50A4B9847012850
S11320F00CD80948094B0062C3611830084B984753
S113210001200849084B9847002010BD1120404287
S1132110FBE7C04649270000E0050020C51F00007A
S1132120E5260000000000205526000010B5074BEE
S11321300A0059790400002905D0D8782100012328
S1132140034CA04710BD11204042FBE7E0050020EE
S11321501D23000010B50A00032810D8094B00F015
S11321605BFC02080A0C18790221074B98470020EF
S113217010BDD878F8E71961F9E75961F7E70D2040
S11321804042F5E7E005002099090000014B587929
S11321907047C046E0050020064B10B51C69002CB2
S11321A000D110BD200063680022012198472468F3
S11321B0F5E7C0460406002070B505000E00064B86
S11321C0DC68002C00D170BD6368002B02D03100A4
S11321D0280098472468F4E704060020F8B50500B1
S11321E00E0017000B4B9C68002C01D12000F8BD99
S11321F06368002B01D12468F6E73A003100280017
S11322009847002804D00A30F5D001204042EEE778
S11322100120ECE704060020054B10B55C68002C97
S113222000D110BD6368002B00D098472468F6E7FE
S11322300406002010B51400002903D0012923D07E
S1132240002010BD1378002BFAD15378052B0FD042
S1132250092BF5D1D1789378090219430D4BD9761E
S11322604A1E91410331997601200B4B9847E7E7C9
S11322700A4B90789847E178A378090219434B1EDA
S11322809941044B0231EEE70A00054B210000207E
S11322909847D5E704060020B9210000650700002F
S11322A0DD21000070B5002402260C4B98470C4D2C
S11322B020000C4BAE76EC766C7798470A4B287F5F
S11322C098470A4D21002000094AA8473100094ACD
S11322D02000A8472000084B984770BD99210000B2
S11322E004060020D5070000C1070000990900007A
S11322F039230000352200000108000010B5002831
S113230002D0012803D010BD024B9847FBE7024BD3
S11323109847F8E7B9210000A52200001FB501ACD9
S1132320207263722000034B01910292984704B01B
S113233010BDC04641080000F7B5B34B00220400AD
S11323400D0098470022431C00D15AE1013290420B
S113235000D156E129781F230A009A4304D0802A29
S113236000D1B1E000224CE1687801380A28F9D89C
S113237000F048FB42F854F80BF8F8F806F85E0051
S1132380AA78002A05D1A14B984700220123110005
S1132390CBE09F4D2B6803CB9E4B9847021E00D188
S11323A02FE1C37881781B02C91889B241189A4B6E
S11323B0042201919847FF230090009A002AE4D058
S11323C096789E4216D02F69002F0AD100980422D5
S11323D003780199C018904B0090984733000090FF
S11323E0EBE76A46002138007B6898470028EDD067
S11323F03F68E9E71E00E9E70229B3D1EE79AB793A
S113240036021E43AED131002879844B984701230C
S1132410320031002000824CA047F1E00229A1D112
S1132420EB79AE791B021E439CD128790139ECE784
S1132430EC78AB7824021C432B796D79744E2D0211
S11324401D433368F27E03CB724B9847002889D032
S113245004220090C37881781B02C91889B24118FC
S11324606D4F0191B847002800D17BE78378AB42D8
S113247010D1C378A3420DD137690090002F00D149
S113248070E701216A4638007B689847011E08D02E
S11324903F68F3E70098042203780199C01800907C
S11324A0E0E77B686A4638009847002800D059E77F
S11324B0002C04D00122AA40737F134373770023B6
S11324C01A0019001800A6E768780A2800D949E715
S11324D000F0ACFA680048FF48FF48FF48FF48FF97
S11324E00B0048FF600048FF8500E978AA780902DC
S11324F011430B0A022B1FD0032B3BD0012B00D01E
S113250030E7EB79AA791B0213431D1C122B00D967
S113251012253F4B01221B68ADB203CB3E4B9847BB
S11325200023011E00D11DE72A0020003C4CA047D7
S113253042424241D2B264E0AB79ED7901312D02DD
S11325401D43334BCAB21E7F1B6803CB314B9847E4
S1132550011E00D106E7C37882781B02D21892B21A
S113256000239542E0D9013E35406B426B41150092
S1132570DBB2D9E7AB79ED79CAB22D021D43244B06
S11325801E7F1B6803CB274B9847011E00D1E9E649
S11325900278E5E71E49CB7E4A6913704969002336
S11325A0012237E71F23194001290CD9022900D041
S11325B0D8E62879194B98470022904221DB012361
S11325C01840009001E000230093114D0222694657
S11325D0154B686998470023022269691AE70C4E73
S11325E06B792A79707F1B02134318410124204020
S11325F02ED173692200187071690300084DA84731
S113260001221000FEBDC046DD210000992100001A
S113261004060020952700005D270000390900000A
S11326201D230000D1270000A12B00002A00022155
S1132630200063689847002803DA2468002CF5D149
S113264090E6736901221870002371691800E2E6AC
S11326503469F3E710B5012809D0002802D0022814
S113266008D010BD05480430054B9847F9E70348E6
S11326700830F9E701480C30F6E7C04604060020AC
S1132680FD09000070B50400431E98410C4A0D4B2F
S1132690C0B20D4998470D4B984700280EDB0C4DEE
S11326A020220C4B0021280098476C610A49002025
S11326B00A4CA04701200A49A047002070BDC0462B
S11326C055030000E5090000BC340000D5060000F5
S11326D004060020B32B000019220000410700006B
S11326E0FD22000010B501000248034B103098474A
S11326F010BDC04604060020FD09000010B50A4BB9
S11327009C7E002C0BD100280CD002681860D27972
S11327101A7701229A76054B9847200010BD0420B1
S11327204042FBE70920FBE7040600204D070000B8
S113273010B5014B984710BD59070000014B58696B
S11327407047C04604060020034B987E10231842AD
S113275000D018007047C0460406002010B5884217
S113276001D3002010BD0378012BFAD94478944298
S1132770F8D0C018F3E7884201D3002070470378EB
S1132780012BFAD94278042AF7D0052AF6D0C018CA
S1132790F1E7000070B50D4B150002220C009847BC
S11327A000280FD170BD0378012B0DD94378022B7B
S11327B00AD14379AB42F5D0C278837812029B18D0
S11327C09BB2C018A042EED30020EBE75D270000C7
S11327D070B50D0016000024A84201D3002070BD7E
S11327E003222900054B98470028F8D00378012BD1
S11327F0F4D9B442F3D0C0180134EDE75D270000EA
S1132800F0B5314B8BB09847304B98476420304B30
S11328109847304B984764202D4B98472E4B2F48B0
S1132820984702A92D482E4B9847022480222D4B0D
S113283012015B21294898472B4D072229002B4F71
S113284005A8B847072205A9294E0298B047E91DF3
S1132850220001A8B847220001A90298B047A02588
S11328601F201B4B9847AD0007AF09233A005021A6
S1132870204E1A48B047204E2048B047204BFA88D3
S1132880204903A8984703A8B047013D220001A9A5
S11328900298174EB047ADB21F200D4B9847002D3C
S11328A0E2D11149114B2200093103A898472200B3
S11328B003A90298B047220001A90298B0471F203B
S11328C0034B9847B2E7C046ED00000031270000F3
S11328D09D0300007D29000055040000B40600207B
S11328E0BD04000061040000D2340000A12B0000EC
S11328F0C504000075040000E9290000DD3400006F
S1132900C52B0000E53400000020014B187070470F
S11329102406002037B50124031C01AA108023409B
S1132920054D06D005492000054B98476C700020E2
S11329303EBD6B70FBE7C046240600200929000059
S11329405521000010B50548054B02309847054B4A
S113295098470548054B984710BDC04624060020FB
S113296085260000E920000008000020FD26000064
S113297010B5014B984710BD4529000010B5044B14
S113298098470028FBD003490320034B984710BD08
S11329908D2100001529000055210000F8B5104CC8
S11329A00D00666C270033000021801B48379A1BFA
S11329B095420BDC002900D063642000616C094B54
S11329C048309847002328006364F8BD6278D2B287
S11329D0002AEFD0C15CD95501331100E7E7C046A6
S11329E0240600202D21000010B5044B0400984754
S11329F0034B81B22000984710BDC046092C00004B
S1132A009D29000002B4714649084900095649004D
S1132A108E4402BC7047C04602B47146490849005E
S1132A20095C49008E4402BC7047C04603B4714639
S1132A30490840004900095E49008E4403BC7047C0
S1132A40002243088B4274D303098B425FD3030AE9
S1132A508B4244D3030B8B4228D3030C8B420DD3FC
S1132A60FF22090212BA030C8B4202D3121209028A
S1132A7065D0030B8B4219D300E0090AC30B8B42C8
S1132A8001D3CB03C01A5241830B8B4201D38B0376
S1132A90C01A5241430B8B4201D34B03C01A52411B
S1132AA0030B8B4201D30B03C01A5241C30A8B425E
S1132AB001D3CB02C01A5241830A8B4201D38B0249
S1132AC0C01A5241430A8B4201D34B02C01A5241ED
S1132AD0030A8B4201D30B02C01A5241CDD2C3095F
S1132AE08B4201D3CB01C01A524183098B4201D3DB
S1132AF08B01C01A524143098B4201D34B01C01AC6
S1132B00524103098B4201D30B01C01A5241C3083D
S1132B108B4201D3CB00C01A524183088B4201D3AC
S1132B208B00C01A524143088B4201D34B00C01A98
S1132B305241411A00D20146524110467047FFE704
S1132B4001B5002000F006F802BDC0460029F7D008
S1132B5076E770477047C04670B500260C4D0D4CA3
S1132B60641BA410A64209D1002600F009FD0A4DF9
S1132B700A4C641BA410A64205D170BDB300EB58E7
S1132B8098470136EEE7B300EB5898470136F2E771
S1132B908C3500008C3500008C3500009035000029
S1132BA0002310B59A4200D110BDCC5CC45401334B
S1132BB0F8E703008218934200D17047197001337B
S1132BC0F9E700000EB410B59DB002A902900861A7
S1132BD00B48822488604861012040421FABC881B1
S1132BE0084804CBA400006801938C8100F0D4F859
S1132BF00023029A13701DB010BC08BC03B0184720
S1132C00FFFFFF7F680000200023C25C0133002A1D
S1132C10FBD1581E70470000032370B5CD1C9D43A3
S1132C20083506000C2D1ED20C25A9421DD83000F3
S1132C3000F06DFB254A14682100002919D1244CA9
S1132C402368002B03D1300000F032FB2060290000
S1132C50300000F02DFB431C2CD10C2330003360DA
S1132C6000F056FB03E0002DDFDA0C233360002074
S1132C7070BD0B685B1B1AD40B2B03D90B60CC18EB
S1132C80256003E08C420ED163681360300000F0CD
S1132C903FFB200007220B30231D9043C31AE7D0CB
S1132CA05A42E250E4E74B6863600C00EEE70C0024
S1132CB04968C2E70323C41C9C43A042E0D0211A04
S1132CC0300000F0F5FA431CDAD1C6E7AC06002068
S1132CD0B0060020F0B58E6885B007000C000392A2
S1132CE001939E4239D890238A89DB001A4234D05A
S1132CF00325096923685B1A0293636902985D439B
S1132D00EB0F5D19019B6D1001331B18AB4200D909
S1132D101D00530532D529003800FFF77DFF061E3C
S1132D2009D10C233B6040230120A2894042134374
S1132D30A38105B0F0BD029A2169FFF731FFA38991
S1132D40144A1A4080231343A381029B2661F61878
S1132D5026606561019EED1AA560019BB34200D215
S1132D601E0032000399206800F0BFFAA368002017
S1132D709B1BA36023689E192660DAE72A003800AB
S1132D8000F012FB061EE0D12169380000F0C2FAFF
S1132D90C7E7C0467FFBFFFFF0B59FB002900593E5
S1132DA08B890F0016001B0611D50B69002B0ED161
S1132DB04021FFF731FF38603861002805D10C232A
S1132DC0029A013813601FB0F0BD40237B610023D9
S1132DD006AD6B6120336B761033AB763400237809
S1132DE0002B47D1A31B04930DD0A31B3200390041
S1132DF00298FFF76FFF431C00D1B5E06A69049B9A
S1132E00944663446B612378002B00D1ACE001222B
S1132E10002352426A6002A95432521801342B60D2
S1132E20EB60AB601370AB65584E0522217830001F
S1132E3000F050FA621C002820D12968CB0604D582
S1132E40532302AE20309B1918700B0704D553236B
S1132E502B2002AE9B19187023782A2B16D0002041
S1132E600A21099B2278303A092A55D9002815D01D
S1132E70099313E0252BB5D00134B0E70123801B5F
S1132E808340296814000B432B60CDE7059B181D74
S1132E901B680590002B39DB0993140023782E2B33
S1132EA00BD16378621C2A2B3ED1059B02341A1D78
S1132EB01B680592002B34DB0793354E21780322DF
S1132EC0300000F007FA002806D04023801B83401E
S1132ED02A68013413432B60217806222D48661C8E
S1132EE0297600F0F7F9002846D02B4B002B2FD180
S1132EF02968059B0722C90528D59B1893430833E5
S1132F0005936B69039A9B186B6167E75B42EB60FF
S1132F1002230B432B60C0E74B4301349B18012071
S1132F20A0E701235B42C7E7002314000A201A002C
S1132F306B6021783039092903D9002BBDD0079261
S1132F40BBE74243013452180123F2E70733D5E7C4
S1132F5005AB00933A00114B2900029800E000BF32
S1132F600390039B0133CCD1BB890B985B0600D43F
S1132F7029E70120404226E705AB00933A00074BBE
S1132F802900029800F07AF8EAE7C0464C350000C0
S1132F90523500005635000000000000D52C00001A
S1132FA0F7B5150001938A680B6900900C009342F1
S1132FB000DA130022002B6043321278002A01D079
S1132FC001332B6023689B0602D52B6802332B60E8
S1132FD0062723681F4027D0230043331B785A1E3B
S1132FE093412268920630D422000199433200981A
S1132FF0089EB047431C25D0062320682A68E16850
S113300003400025042B03D18D1AEB43DB171D402D
S1133010A3682269934201DD9B1AED180027BD4283
S113302020D1002010E00137E3682A689B1A9F42F0
S1133030D2DA22000123193201990098089EB04780
S1133040431CF0D101204042FEBD3020E118433141
S1133050087021005A1C45310978A2184332023302
S11330601170C1E7220001231A3201990098089EC9
S1133070B047431CE6D00137D1E70000F0B58BB070
S113308006920A0043320793059004920A7E0C00CC
S1133090109B6E2A00D18FE017D8632A2CD008D851
S11330A0002A00D199E0582A54D0260042363270C2
S11330B029E0642A01D0692AF7D121681A68080630
S11330C023D5111D1960156825E0732A00D188E005
S11330D008D86F2A29D0702AE7D1202209680A4328
S11330E0226003E0752A20D0782ADED122007821DC
S11330F0453211706C4A30E00E001A684236111DD8
S1133100196013683370012379E04906D9D5111D7C
S113311019600023D55E002D03DA2D23049A6D4235
S11331201370624B0A2703932FE020681968050681
S113313003D5081D18600D6805E04006F9D50D6833
S1133140081D1860ADB2594B082703936F2A18D095
S11331500A2716E045310A70544A03921A68216816
S1133160101D18601568080622D5CB0702D5202348
S1133170194321601027002D03D1202322689A438C
S113318022602300002243331A706368A360002B7B
S11331905CDB0422216891432160002D58D1049EF8
S11331A0002B64D02600039B42361B7833705EE00C
S11331B04806DAD5ADB2D8E709681A68080605D515
S11331C0111D1960136862691A6006E04906F7D593
S11331D0111D19601368A28A1A800023049E2361BA
S11331E054E01A68111D19601668002162683000E5
S11331F000F070F8002801D0801B606063682361D0
S11332000023049A137041E023693200069905985B
S1133210079DA847431C43D0236800259B070FD470
S1133220099BE06898423DDA18003BE02200012344
S1133230193206990598079EB047431C30D00135D2
S1133240E368099A9B1A9D42F0DBE9E7002DA9D0B7
S1133250049E28003900FFF779FC039B013E5B5C68
S1133260280033703900FFF7EBFB051EF1D1082F5E
S113327009D12368DB0706D563682269934202DC1F
S11332803023013E3370049B9B1B2361079B09AAD7
S113329000932100069B0598FFF782FE431CB3D1DF
S11332A0012040420BB0F0BD6E3500005D350000DA
S11332B0002370B5064C050008002360FDF7BEFB33
S11332C0431C03D12368002B00D02B6070BDC04683
S11332D0D4060020C9B28218904201D10020704760
S11332E003788B42FBD00130F6E710B5884202D94F
S11332F08B18984208D300239A4207D0CC5CC4545C
S11333000133F9E78B5C8354013AFBD210BD70475B
S11333107047000070B50500002910D00C1F236809
S1133320002B00DAE4182800FFF7F1FF1D4A1368A8
S1133330002B05D1636014602800FFF7E9FF70BD1E
S1133340A34209D9216860188342F3D118685B68E5
S113335041182160EEE713005A68002A01D0A24206
S1133360F9D919685818A0420BD1206809185818BF
S113337019608242E0D110685268411819605A609D
S1133380DAE7A04202D90C232B60D5E72168601844
S1133390824203D1106852684118216062605C6007
S11333A0CAE7C046AC060020F8B507000D001600B9
S11333B0002905D11100FFF72FFC04002000F8BDFF
S11333C0002A03D1FFF7A6FF3400F7E700F012F854
S11333D02C008642F2D931003800FFF71DFC041E90
S11333E0ECD029003200FFF7DBFB29003800FFF79F
S11333F091FFE3E70B1F1B68181F002B01DA0B5822
S1133400C01870472E2E2F68616C2F7372632F685B
S1133410616C5F6932635F6D5F73796E632E630005
S11334202E2E2F68616C2F7372632F68616C5F6935
S11334306F2E63002E2E2F68616C2F7574696C7368
S11334402F7372632F7574696C735F6C6973742E58
S113345063000000000000001400200000010000D0
S1133460220000000000D70000127A0000000000D3
S1133470000000000000000000000000002E2E2FBD
S113348068706C2F736572636F6D2F68706C5F73F7
S11334906572636F6D2E6300A005002000000000BC
S11334A04000000060050020000000004000000013
S11334B02005002000000000400000002E2E2F7583
S11334C073622F6465766963652F75736264632E16
S11334D0630041873F3F0A0003470140804C454455
S11334E04F4E3A200025640A00000000000000004E
S11334F000000000000000000000000000000000C8
S113350000000000000000000000000000000000B7
S113351000000000000000000000000000000000A7
S11335200000000000000000000000000000000097
S11335300000000000000000000000000000000087
S1133540000000000000000000000000232D302BCC
S11335502000686C4C006566674546470030313290
S113356033343536373839414243444546003031E7
S11335703233343536373839616263646566000046
S1133580F8B5C046F8BC08BC9E467047B5000000BC
S1133590F8B5C046F8BC08BC9E4670478D000000D4
S11335A000000000E91E000010000020650000205B
S11335B01201000202000040EB0304240001000099
S11335C000010902430002010080320904000001E5
S11335D00202000005240001100524010100042456
S11335E0020205240600010705820340000A0904BB
S11335F00100020A0000000705010240000007055F
S113360081024000000000006C0000200000000067
S11336100C3500002C350000EC34000000000000E4
S11336200000000000000000000000000000000096
S11336300000000000000000000000000000000086
S11336400000000000000000000000000000000076
S11336500000000000000000000000000000000066
S10F36600000000000000000000000005A
S9030000FC
